:100000000C942A000C9447000C9447000C94470071
:100010000C9447000C9447000C9447000C94470044
:100020000C9447000C9447000C9447000C94470034
:100030000C9447000C947A010C9447000C944700F0
:100040000C9447000C9447000C9447000C94470014
:100050000C94470011241FBECFE5D8E0DEBFCDBF12
:1000600013E0A0E6B0E0E4E8F0E102C005900D92F4
:10007000A83DB107D9F725E0A8EDB3E001C01D9276
:10008000A031B207E1F70E94DA040C9440080C9406
:10009000000086E880BD88E18AB98DE489B90895B9
:1000A0005F9BFECF1BB88CB1089588BB82B3877F5E
:1000B00082BB82B38F7B82BB82B3806882BB8FE1BD
:1000C0009EE40197F1F700C0000082B38F7782BBF6
:1000D000089588BB82B3886082BB82B38F7B82BB6A
:1000E00082B3806882BB8FE19EE40197F1F700C084
:1000F000000082B38F7782BB089588E30E94550089
:100100008FEC97E00197F1F700C0000081E00E94BA
:1001100055008FEC97E00197F1F700C0000082E0F6
:100120000E9455008FEC97E00197F1F700C00000A6
:1001300086E00E9455008FEC97E00197F1F700C030
:10014000000080E80E9455008FEC97E00197F1F7DE
:1001500000C0000008950F931F93CF93DF938C018D
:10016000C0E0D0E003C00E9469002196F801EC0FC6
:10017000FD1F80818111F7CFDF91CF911F910F91EA
:1001800008952AB128692AB920B5266820BDDC0166
:10019000CB01880F991FAA1FBB1F880F991FAA1F89
:1001A000BB1F9C01AD01220F331F441F551F220F9F
:1001B000331F441F551F60E072E18AE790E00E9400
:1001C00008058FEF820F89B9DA01C9010197A109EA
:1001D000B109892F9A2FAB2FBB2780BD08955D9B56
:1001E000FECF8CB908950F931F93CF938C01C0E07D
:1001F00003C00E94EF00CF5FF801EC0FF11D80817A
:100200008111F7CFCF911F910F9108951DBC1CBC98
:1002100083EC99E097BD86BD82EA8FBD8BE18EBDF0
:1002200008950E947D008FE19EE40197F1F700C0E0
:1002300000008CE00E9455008FE19EE40197F1F7E9
:1002400000C000008EE992E00E94AB009FE728E327
:1002500081E0915020408040E1F700C0000080EC38
:100260000E9455009FEF20E782E09150204080409F
:10027000E1F700C0000088EA92E00E94AB00089518
:1002800082EB92E00E94F300089586EC92E00E94D7
:10029000F3002FEF84E39CE0215080409040E1F791
:1002A00000C000006CEC72E088ED93E00E943C0519
:1002B000892B59F380EAE8EDF3E0DF011D928A957E
:1002C000E9F70E944001BFEF29E688E1B1502040E4
:1002D0008040E1F700C000008FEC92E00E94F30044
:1002E0009FEFA9E6B8E19150A040B040E1F700C00F
:1002F000000008951F920F920FB60F9211248F9352
:100300009F93EF93FF93E0910E05F0910F058CB151
:10031000E852FC4F808380910E0590910F05019665
:1003200090930F0580930E05FF91EF919F918F9110
:100330000F900FBE0F901F901895EF92FF920F93A2
:100340001F93CF93DF93CDB7DEB7A3970FB6F89483
:10035000DEBF0FBECDBF8B0110920F0510920E05B0
:100360009F938F938AED92E09F938F93CE01019696
:100370007C019F938F930E945605C7010E94F30052
:100380009FEF21EE84E0915020408040E1F700C0D3
:1003900000000F900F900F900F900F900F90E09132
:1003A0000E05F0910F05E852FC4F80818E3309F065
:1003B00046C010920F0510920E050F2EF8EDEF2E8D
:1003C000F3E0FF2EF02DF70101900020E9F73197BF
:1003D000AF01485D534060E070E0C7010E942A050C
:1003E000C8010E94F3008AE10E94EF009FEF22E51E
:1003F00087E0915020408040E1F700C0000010925B
:100400000F0510920E05F70101900020E9F73197D2
:10041000AF01485D534060E070E0C7010E942A05CB
:10042000CE010196FC0101900020E9F73197AF0160
:10043000481B590B60E070E00E942A050AC08091B9
:100440000E0590910F05019690930F0580930E0570
:10045000A6CFA3960FB6F894DEBF0FBECDBFDF9137
:10046000CF911F910F91FF90EF900895989923C01D
:10047000999904C09A9902C09B9B1CC081E08BBBD8
:100480002FE78FE492E1215080409040E1F700C0D7
:1004900000001BBA2FE789EA93E02150804090408A
:1004A000E1F700C0000068E271E084E691E00E949C
:1004B0009D0108951BBA0895EF92FF920F931F9329
:1004C000CF93DF93CDB7DEB7C456D1090FB6F894FA
:1004D000DEBF0FBECDBF182F092F10920F0510924F
:1004E0000E0588EE92E00E94F3002FEF32E587E0E0
:1004F000215030408040E1F700C000006CEC72E019
:1005000088ED93E00E943C05892B09F461C1E8ED78
:10051000F3E001900020E9F73197AF01485D5340C7
:1005200060E070E088ED93E00E942A0584EF92E09D
:100530000E94F3009FEFA4E3BCE09150A040B040C4
:10054000E1F700C000006CEC72E088ED93E00E94DF
:100550003C05892B09F43FC1E8EDF3E00190002050
:10056000E9F73197AF01485D534060E070E088EDF6
:1005700093E00E942A0583E193E00E94F3002FEFAD
:1005800034E38CE0215030408040E1F700C00000AF
:100590006CEC72E088ED93E00E943C05892B09F435
:1005A0001DC1E8EDF3E001900020E9F73197AF01BC
:1005B000485D534060E070E088ED93E00E942A05BA
:1005C0008AE293E00E94F3009FEFA4E3BCE0915025
:1005D000A040B040E1F700C000006CEC72E088ED94
:1005E00093E00E943C05892BE1F0E8EDF3E00190F7
:1005F0000020E9F73197AF01485D534060E070E0BB
:1006000088ED93E00E942A0588E393E00E94F300BE
:100610002FEF34E38CE0215030408040E1F700C000
:1006200000006CEC72E088ED93E00E943C05892BA1
:1006300009F4D7C0E8EDF3E001900020E9F7319725
:10064000AF01485D534060E070E088ED93E00E94A8
:100650002A0588E393E00E94F3009FEFA4E3BCE047
:100660009150A040B040E1F700C000006CEC72E097
:1006700088ED93E00E943C05892B09F4B5C08FE317
:10068000E2E7F1E09E012F5F3F4F7901D901019030
:100690000D928A95E1F7FE01E05CFF4F85E2DF01F4
:1006A0001D928A95E9F70F931F9385E493E09F933A
:1006B0008F933F932F930E94560508ED13E0F801A6
:1006C00001900020E9F73197AF01485D534060E0A9
:1006D00070E0C8010E942A05C7010E94F300BFEF25
:1006E00029E638E1B15020403040E1F700C0000079
:1006F00086E893E00E94F3008FEF94E3ACE0815032
:100700009040A040E1F700C00000F80101900020F7
:10071000E9F73197AF01485D534060E070E0C801F0
:100720000E942A0587E993E00E94F30069EA73E0DA
:10073000C8010E943C050F900F900F900F900F90F2
:100740000F90892B09F041C066E270E0C8010E9459
:100750003105AC0120E030E006C0F901E858FB4F5C
:1007600090832F5F3F4FFA01E20FF31F90819E3578
:10077000A1F76EE570E088ED93E00E943105AC01D1
:1007800020E030E006C0F901E858FB4F968F2F5F5C
:100790003F4FFA01E20FF31F90819034A1F7E8ED8B
:1007A000F3E001900020E9F73197AF01485D534035
:1007B00060E070E088ED93E00E942A058FEA93E004
:1007C0000E94F30088E794E011C080E690E00EC03C
:1007D00084EC90E00BC084EC90E008C084EC90E0E6
:1007E00005C084EC90E002C084EC90E0CC59DF4F6F
:1007F0000FB6F894DEBF0FBECDBFDF91CF911F9132
:100800000F91FF90EF9008950F931F93CF93DF9375
:10081000CDB7DEB7C45DD1090FB6F894DEBF0FBE09
:10082000CDBF8BB38F7B8BBB8BB38F778BBB0E9482
:1008300049002FEF80E792E0215080409040E1F79F
:1008400000C0000000E010E00BC00E945000E1E09A
:10085000F0E0EC0FFD1FE00FF11F80830F5F1F4FD3
:100860000C30110594F38BB380648BBB10920F0591
:1008700010920E0560E875E280E090E00E94C100F1
:100880007894AFEFBDE329E4A150B0402040E1F7F8
:1008900000C000000E944501CE0101960E945C024A
:1008A00069EA73E088ED93E00E943C05892B09F02A
:1008B00072C08E010F581F4F88E0E6EDF1E0D801BD
:1008C00001900D928A95E1F7F80138968CE5DF01E9
:1008D0001D928A95E9F788E794E09F938F938CEBBC
:1008E00093E09F938F931F930F930E94560581E08F
:1008F0000E9455008FEC97E00197F1F700C00000CF
:10090000C8010E94AB009FE7A8E3B1E09150A0406E
:10091000B040E1F700C0000080EC0E9455002FEFCE
:1009200080E792E0215080409040E1F700C0000055
:1009300087EC93E00E94AB00AFEFB1E12AE7A15052
:10094000B0402040E1F700C0000081E00E94550067
:100950008FEC97E00197F1F700C000008FE1EAE328
:10096000F2E0DE011D9601900D928A95E1F7FE01FD
:10097000BC9685E4DF011D928A95E9F7BE01635FAD
:100980007F4F86E994E00E949D010F900F900F9099
:100990000F900F900F908BB38F7B8BBBCC52DF4FA0
:1009A0000FB6F894DEBF0FBECDBFDF91CF911F9180
:1009B0000F91089581EC8ABB8FEF87BB14BA88EF43
:1009C00081BB0E940601C99B11C02FEF84E39CE00C
:1009D000215080409040E1F700C0000086E791E0A0
:1009E00099BD88BD0E9411010E940404C999EBCFF2
:1009F0002FEF84E39CE0215080409040E1F700C05D
:100A000000008CE790E099BD88BD0E943602DBCFE4
:100A1000A1E21A2EAA1BBB1BFD010DC0AA1FBB1F02
:100A2000EE1FFF1FA217B307E407F50720F0A21B74
:100A3000B30BE40BF50B661F771F881F991F1A94E1
:100A400069F760957095809590959B01AC01BD010B
:100A5000CF010895DC0101C06D9341505040E0F793
:100A60000895FC018191861721F08823D9F79927F1
:100A700008953197CF010895FB0151915523A9F0B5
:100A8000BF01DC014D9145174111E1F759F4CD014A
:100A90000190002049F04D9140154111C9F3FB012F
:100AA0004111EFCF81E090E001970895AEE0B0E012
:100AB000ECE5F5E00C9417080D891E8986E08C831F
:100AC0001A8309838FEF9FE79E838D83AE01475E74
:100AD0005F4F6F89788DCE0101960E947805EF8176
:100AE000F885E00FF11F10822E96E4E00C94330895
:100AF000ABE0B0E0EEE7F5E00C9409086C017B0197
:100B00008A01FC0117821682838181FFCCC1CE014C
:100B100001963C01F6019381F70193FD859193FFC6
:100B200081917F01882309F4BAC1853239F493FD9C
:100B3000859193FF81917F01853229F4B60190E080
:100B40000E946F07E7CF912C212C312CFFE1F31588
:100B5000D8F08B3279F038F4803279F08332A1F416
:100B6000232D20611DC08D3261F0803369F4232D67
:100B7000216016C0832D8260382EE32DE4603E2E66
:100B80002AC0F32DF8601DC037FC2DC020ED280FC2
:100B90002A3040F08E32B9F436FC81C1232D206416
:100BA000322E19C036FE06C08AE0989E200D112410
:100BB000922E11C0EAE02E9E200D1124222EF32D3C
:100BC000F0623F2E08C08C3621F4832D8068382EC9
:100BD00002C0883641F4F70193FD859193FF81911E
:100BE0007F018111B3CF982F9F7D9554933028F4C6
:100BF0000C5F1F4F9FE399830DC0833631F083371D
:100C000071F0833509F059C021C0F80180818983D2
:100C10000E5F1F4F88248394912C530113C0280129
:100C2000F2E04F0E511CF801A080B18036FE03C0E7
:100C3000692D70E002C06FEF7FEFC5010E9464076D
:100C40004C018201F32DFF773F2E16C0280122E0D0
:100C5000420E511CF801A080B18036FE03C0692D00
:100C600070E002C06FEF7FEFC5010E9459074C0191
:100C7000F32DF0683F2E820133FC1BC0822D90E0E3
:100C800088169906B0F4B60180E290E00E946F07E2
:100C90002A94F4CFF50137FC859137FE81915F01ED
:100CA000B60190E00E946F0721102A9421E0821A79
:100CB00091088114910471F7E8C0843611F08936E7
:100CC00041F5F80137FE07C060817181828193810F
:100CD0000C5F1F4F08C060817181072E000C880BCC
:100CE000990B0E5F1F4FF32DFF763F2E97FF09C024
:100CF00090958095709561957F4F8F4F9F4FF068CD
:100D00003F2E2AE030E0A3010E94AB07882E861810
:100D100045C0853731F4232D2F7EB22E2AE030E0F6
:100D200025C0932D997FB92E8F36C1F018F48835E0
:100D300079F0B5C0803719F0883721F0B0C0E92FBD
:100D4000E061BE2EB4FE0DC0FB2DF460BF2E09C0C5
:100D500034FE0AC0292F2660B22E06C028E030E0FB
:100D600005C020E130E002C020E132E0F801B7FE2A
:100D700007C060817181828193810C5F1F4F06C023
:100D80006081718180E090E00E5F1F4FA3010E949F
:100D9000AB07882E8618FB2DFF773F2E36FE0DC041
:100DA000232D2E7FA22E891458F434FE0BC032FC62
:100DB00009C0832D8E7EA82E05C0B82CA32C03C09D
:100DC000B82C01C0B92CA4FE0FC0FE01E80DF11D26
:100DD0008081803321F49A2D997EA92E09C0A2FE2C
:100DE00006C0B394B39404C08A2D867809F0B394F6
:100DF000A3FC11C0A0FE06C0B21488F4280C922CEB
:100E00009B180EC0B21460F4B60180E290E00E941C
:100E10006F07B394F7CFB21418F42B1802C0982CB4
:100E2000212CA4FE10C0B60180E390E00E946F0761
:100E3000A2FE17C0A1FC03C088E790E002C088E5CD
:100E400090E0B6010CC08A2D867859F0A1FE02C050
:100E50008BE201C080E2A7FC8DE2B60190E00E9427
:100E60006F07891438F4B60180E390E00E946F07A1
:100E70009A94F7CF8A94F301E80DF11D8081B601B1
:100E800090E00E946F078110F5CF222009F442CE36
:100E9000B60180E290E00E946F072A94F6CFF60137
:100EA0008681978102C08FEF9FEF2B96E2E10C9431
:100EB0002508FC010590615070400110D8F780951D
:100EC00090958E0F9F1F0895FC0161507040019016
:100ED0000110D8F7809590958E0F9F1F08950F935E
:100EE0001F93CF93DF93FB01238121FD03C08FEF7D
:100EF0009FEF2CC022FF16C0468157812481358187
:100F00004217530744F4A081B1819D012F5F3F4FE9
:100F1000318320838C93268137812F5F3F4F378326
:100F2000268314C08B01EC01FB010084F185E02DC8
:100F30000995892BE1F6D80116968D919C9117970A
:100F4000019617969C938E931697CE01DF91CF91C1
:100F50001F910F910895FA01AA27283051F12031ED
:100F600081F1E8946F936E7F6E5F7F4F8F4F9F4F3D
:100F7000AF4FB1E03ED0B4E03CD0670F781F891F7F
:100F80009A1FA11D680F791F8A1F911DA11D6A0F4D
:100F9000711D811D911DA11D20D009F468943F9100
:100FA0002AE0269F11243019305D3193DEF6CF01FF
:100FB0000895462F4770405D4193B3E00FD0C9F7C5
:100FC000F6CF462F4F70405D4A3318F0495D31FD32
:100FD0004052419302D0A9F7EACFB4E0A695979585
:100FE000879577956795BA95C9F70097610571055B
:100FF00008959B01AC010A2E0694579547953795A5
:101000002795BA95C9F7620F731F841F951FA01DFE
:1010100008952F923F924F925F926F927F928F929C
:101020009F92AF92BF92CF92DF92EF92FF920F9377
:101030001F93CF93DF93CDB7DEB7CA1BDB0B0FB681
:10104000F894DEBF0FBECDBF09942A88398848883E
:101050005F846E847D848C849B84AA84B984C884D4
:10106000DF80EE80FD800C811B81AA81B981CE0FCB
:10107000D11D0FB6F894DEBF0FBECDBFED010895B0
:04108000F894FFCF12
:10108400596F7572204944206361726420646F65EE
:10109400736E2774206D61746368207769746820A7
:1010A4006461746162617365000000000000000007
:1010B400000000000000000000000000000000002C
:1010C400000000000000000000000000000000001C
:1010D400000000000000000000000000000000000C
:1010E400000000006661696C000000000000000060
:1010F40000000000000000000000000000000000EC
:1011040000000000000000000000000000000000DB
:1011140000000000000000000000000000000000CB
:1011240000000000000000000000000000000000BB
:1011340000000000000000000000000000000000AB
:101144000000000000000000596F75206C65667493
:10115400206368696C6420696E2074686520627518
:101164007300000000000000000000000000000008
:10117400000000000000000000000000000000006B
:101184000000000037363435363735333435000047
:10119400000041542B48545450504152413D3F5556
:1011A400524C3F2C3F687474703A2F2F6C6F6361FC
:1011B4006C686F73742F44617461626173652F632B
:1011C4006865636B2E7068703F524649443D3F0D1D
:1011D400000000000000000000000000000000000B
:1011E40000000000000000000000000000000000FB
:1011F40000000000000073747564656E74000000E4
:1012040000000000000000000000000000000000DA
:1012140000000000000000000000000000000000CA
:1012240000000000000000000000000000000000BA
:1012340000000000000000000000000000000000AA
:10124400000000000000000000000000000000009A
:1012540000000000000000000000596F7572206358
:1012640068696C6420686173206172726976656470
:10127400207468652062757300000000000000009F
:10128400000000000000000000000000000000005A
:10129400000000000000000000000000000000004A
:1012A400000000000000000000000000000000003A
:1012B400000000000000000000000000000053686F
:1012C4006F7720596F75720052464944204361720A
:1012D400640041542B434D4744413D2244454C2036
:1012E400414C4C220D00415445300D004F4B004100
:1012F400542B434D47463D310D0041542B434D473C
:10130400533D222573220D0041542B43474154542D
:101314003D310D0041542B53415042522D332C3159
:101324002C22434F4E54595045222C22475052539D
:10133400220D0041542B53415042522D332C312C59
:101344002241504E222C22220D0041542B53415055
:1013540042522D312C310D0041492B4854545049EF
:101364004E49540D0041542B48545450504152415D
:101374003D3F55524C3F2C3F687474703A2F2F6C8C
:101384006F63616C686F73742F446174616261731D
:10139400652F636865636B2E7068703F52464944DD
:1013A4003D25733F0D0041542B4854545041435440
:1013B400494F4E3D300D0041542B48545450524532
:1013C40041443D302C33300D0066616C736500413F
:1013D400542B485454505445524D0D005374756465
:1013E400656E7420257300417474656E64616E6368
:0813F4006520446F6E650000E6
:00000001FF
